:020000040800F2
:10000000002800208D1400081D1400082314000887
:10001000291400082F1400083514000800000000FF
:100020000000000000000000000000003B14000879
:100030004714000800000000531400085F14000873
:10004000D5140008D5140008D5140008D5140008EC
:10005000D5140008D5140008D5140008D5140008DC
:10006000D5140008D5140008D5140008D5140008CC
:10007000D5140008D5140008D5140008D5140008BC
:10008000D5140008D5140008D5140008D5140008AC
:10009000D5140008D5140008D5140008D51400089C
:1000A000D5140008D5140008D5140008D51400088C
:1000B0006D140008D514000800000000D5140008D5
:1000C000D51400080000000000000000D51400084E
:1000D00000000000D5140008D5140008000000003E
:1000E000D5140008D5140008D5140008000000003D
:1000F0000000000000000000000000000000000000
:0C01000000000000000000005FF808F1A3
:10010C0010B5054C237833B9044B13B10448AFF345
:10011C0000800123237010BD1C0000200000000093
:10012C001C2B000808B5034B1BB103490348AFF364
:10013C00008008BD00000000200000201C2B0008DF
:10014C0080B582B000AF78607B68092B00F29E818D
:10015C0001A252F823F000BF8D010008DB0100085A
:10016C002902000877020008C502000813030008E2
:10017C0061030008AF030008FD0300084B040008EE
:10018C0000221021C44801F0A2FC00222021C24808
:10019C0001F09DFC00224021BF4801F098FC002298
:1001AC008021BD4801F093FC00224FF48071BA48C5
:1001BC0001F08DFC00224FF40071B74801F087FC70
:1001CC0001224FF48061B44801F081FC5FE101220F
:1001DC001021B14801F07BFC00222021AE4801F037
:1001EC0076FC00224021AC4801F071FC01228021F8
:1001FC00A94801F06CFC01224FF48071A64801F073
:10020C0066FC01224FF40071A34801F060FC01224E
:10021C004FF48061A04801F05AFC38E10022102113
:10022C009D4801F054FC002220219B4801F04FFC1A
:10023C0001224021984801F04AFC00228021964876
:10024C0001F045FC00224FF48071934801F03FFC13
:10025C0001224FF40071904801F039FC00224FF458
:10026C0080618D4801F033FC11E1002210218A4895
:10027C0001F02DFC00222021874801F028FC0022EF
:10028C004021854801F023FC00228021824801F0A6
:10029C001EFC01224FF480717F4801F018FC0122F2
:1002AC004FF400717C4801F012FC00224FF4806185
:1002BC00794801F00CFCEAE001221021764801F0AB
:1002CC0006FC00222021744801F001FC0022402190
:1002DC00714801F0FCFB012280216F4801F0F7FB13
:1002EC0001224FF480716C4801F0F1FB00224FF4B5
:1002FC000071694801F0EBFB00224FF48061664805
:10030C0001F0E5FBC3E000221021634801F0DFFBA4
:10031C0001222021604801F0DAFB002240215E48D6
:10032C0001F0D5FB002280215B4801F0D0FB0122BB
:10033C004FF48071584801F0CAFB00224FF4007151
:10034C00554801F0C4FB00224FF48061524801F083
:10035C00BEFB9CE0002210214F4801F0B8FB0122AB
:10036C0020214D4801F0B3FB002240214A4801F006
:10037C00AEFB00228021484801F0A9FB00224FF47B
:10038C008071454801F0A3FB00224FF400714248F4
:10039C0001F09DFB00224FF480613F4801F097FB78
:1003AC0075E0002210213C4801F091FB0022202135
:1003BC00394801F08CFB00224021374801F087FBC3
:1003CC0001228021344801F082FB01224FF480711C
:1003DC00314801F07CFB01224FF400712E4801F0F2
:1003EC0076FB01224FF480612B4801F070FB4EE04C
:1003FC0000221021284801F06AFB00222021264807
:10040C0001F065FB00224021234801F060FB002233
:10041C008021214801F05BFB00224FF480711E48C3
:10042C0001F055FB00224FF400711B4801F04FFB0B
:10043C0000224FF48061184801F049FB27E00022AC
:10044C001021154801F043FB00222021124801F035
:10045C003EFB00224021104801F039FB0022802194
:10046C000D4801F034FB01224FF480710A4801F071
:10047C002EFB00224FF40071074801F028FB0022EC
:10048C004FF48061044801F022FB00E000BF00BF84
:10049C000837BD4680BD00BF000C014080B483B05E
:1004AC0000AF786039603B68012B17D17B68194A23
:1004BC0082FB03129210DB17D31A174A1360796868
:1004CC00144B83FB01239A10CB17D21A13469B00B3
:1004DC0013445B00CA1A104B5A6016E07B680D4A35
:1004EC0082FB03129210DB17D31A0B4A93607968C4
:1004FC00084B83FB01239A10CB17D21A13469B008F
:10050C0013445B00CA1A044BDA6000BF0C37BD46BB
:10051C0080BC7047676666667000002080B582B04C
:10052C0000AF78607B68032B72D801A252F823F0DD
:10053C004D05000881050008B5050008E90500080F
:10054C0000220121354801F0C2FA01220221334870
:10055C0001F0BDFA01220421304801F0B8FA012261
:10056C0008212E4801F0B3FA2D4B1B681846FFF7F3
:10057C00E7FD4EE001220121284801F0A8FA0022F3
:10058C000221264801F0A3FA01220421234801F09C
:10059C009EFA01220821214801F099FA204B5B6850
:1005AC001846FFF7CDFD34E0012201211B4801F074
:1005BC008EFA01220221194801F089FA0022042145
:1005CC00164801F084FA01220821144801F07FFA40
:1005DC00134B9B681846FFF7B3FD1AE0012201216B
:1005EC000E4801F074FA012202210C4801F06FFA56
:1005FC0001220421094801F06AFA00220821074867
:10060C0001F065FA064BDB681846FFF799FD00E030
:10061C0000BF00BF0837BD4680BD00BF000C0140C5
:10062C007000002080B500AF894B1B68042B00F2D2
:10063C007E8201A252F823F059060008BD0600087C
:10064C000507000891080008E7090008002000F0E1
:10065C00A9FC0346002B02D07E4B01221A6000201D
:10066C0000F0A0FC0346002B40F06382794B1B6822
:10067C00002B00F05E82764B01221A600021642070
:10068C0000F030FE0121642000F02CFE724B02229F
:10069C001A60724B00221A60714B1B68714A13600E
:1006AC00714B1B68714A13606A4B00221A6040E25E
:1006BC0000F05CFA00F00EFB002000F073FC034627
:1006CC00002B02D0634B01221A60002000F06AFC60
:1006DC000346002B40F02F825E4B1B68002B00F072
:1006EC002A825B4B02221A600321322000F0FAFDB1
:1006FC00584B00221A601EE25D4BDB68012B0CD1BB
:10070C000321322000F0EEFD40215A4801F0F7F9A8
:10071C004FF40071574801F0F2F9514B1B6801215D
:10072C001846FFF7BBFE02210220FFF7B7FE01209F
:10073C0000F038FC0346002B02D04F4B01221A600C
:10074C00012000F02FFC0346002B0BD14A4B1B68F9
:10075C00002B07D0424B1B680133414A1360464BB8
:10076C0000221A60012000F037FC0346002B17D042
:10077C00424B1B68002B06D00421322000F0B2FD46
:10078C003E4B00221A603A4B1B69012B08D1042105
:10079C00322000F0A7FD324B1B680133304A136046
:1007AC00022000F0FFFB0346002B02D0344B012249
:1007BC001A60022000F0F6FB0346002B1CD1304BD4
:1007CC001B68002B18D0224B01221A6000216420D8
:1007DC0000F088FD0121642000F084FD01224021FD
:1007EC00244801F074F901224FF40071214801F002
:1007FC006EF9234B00221A60002000F0D3FB034655
:10080C00002B02D0134B01221A60002000F0CAFB0F
:10081C000346002B40F091810E4B1B68002B00F01F
:10082C008C810B4B03221A600321322000F05AFDFD
:10083C00012240210F4801F04AF901224FF40071C6
:10084C000C4801F044F9034B00221A6075E100BF1B
:10085C005400002048000020800000209C00002054
:10086C0000000020980000200400002088000020D8
:10087C00EC000020000801404C0000200C0000207F
:10088C0050000020B04BDB68012B0CD1032132202F
:10089C0000F028FD2021AD4801F031F94FF48071B2
:1008AC00AA4801F02CF9AA4B1B6801211846FFF746
:1008BC00F5FD02210320FFF7F1FD012000F072FB92
:1008CC000346002B02D0A34B01221A60012000F03A
:1008DC0069FB0346002B0BD19E4B1B68002B07D0EA
:1008EC009B4B1B6801339A4A13609A4B00221A6087
:1008FC00012000F071FB0346002B17D0964B1B68B0
:10090C00002B06D00421322000F0ECFC924B00228C
:10091C001A608D4B1B69012B08D10421322000F089
:10092C00E1FC8B4B1B680133894A1360022000F0F9
:10093C0039FB0346002B02D0884B01221A6002209F
:10094C0000F030FB0346002B1CD1844B1B68002BA2
:10095C0018D0834B01221A600021642000F0C2FCE5
:10096C000121642000F0BEFC01222021774801F017
:10097C00AEF801224FF48071744801F0A8F8774B5F
:10098C0000221A60002000F00DFB0346002B02D061
:10099C00744B01221A60002000F004FB0346002B6C
:1009AC0040F0CD806F4B1B68002B00F0C8806C4B67
:1009BC0004221A600321322000F094FC0122202131
:1009CC00624801F084F801224FF480715F4801F015
:1009DC007EF8644B00221A60B1E05B4BDB68012BA4
:1009EC000BD10321322000F07DFC1021574801F07F
:1009FC0086F88021554801F082F85B4B1B68012179
:100A0C001846FFF74BFD02210420FFF747FD01209C
:100A1C0000F0C8FA0346002B02D04E4B01221A609C
:100A2C00012000F0BFFA0346002B0BD1494B1B6889
:100A3C00002B07D04C4B1B6801334B4A1360454BC2
:100A4C0000221A60012000F0C7FA0346002B17D0D1
:100A5C00414B1B68002B06D00421322000F042FCD5
:100A6C003D4B00221A60384B1B69012B08D1042125
:100A7C00322000F037FC3C4B1B6801333A4A1360C0
:100A8C00022000F08FFA0346002B02D0334B0122D8
:100A9C001A60022000F086FA0346002B1BD12F4B64
:100AAC001B68002B17D02E4B01221A6000216420EA
:100ABC0000F018FC0121642000F014FC012210212C
:100ACC00224801F004F801228021204800F0FFFFA9
:100ADC00224B00221A60002000F064FA0346002B1F
:100AEC0002D0204B01221A60002000F05BFA034672
:100AFC00002B26D11B4B1B68002B22D0184B01223C
:100B0C001A600021642000F0EDFB0121642000F04C
:100B1C00E9FB012210210D4800F0D9FF01228021B0
:100B2C000A4800F0D4FF0F4B00221A6009E000BF06
:100B3C0008E000BF06E000BF04E000BF02E000BF19
:100B4C0000E000BF00BF80BDEC00002000080140A9
:100B5C00080000204C0000200C0000205000002059
:100B6C0054000020480000200400002080B500AF95
:100B7C004F4B1B68022B07D0022B00F38F80002BEE
:100B8C0030D0012B5CD089E000224021494800F094
:100B9C009EFF01222021474800F099FF01221021DD
:100BAC00444800F094FF444B1B6801211846FFF7A2
:100BBC0075FC424B1B68012B72D10021642000F0A4
:100BCC0091FB3D4B1B68013B3B4A13603A4B1B6846
:100BDC00002B65DA364B00221A60394B1B68394AF8
:100BEC0013605DE001224021324800F070FF0122C9
:100BFC002021304800F06BFF002210212D4800F01E
:100C0C0066FF304B1B6801211846FFF747FC2B4B46
:100C1C001B68012B46D10021642000F063FB294B9B
:100C2C001B68013B274A1360264B1B68002B39DAE3
:100C3C001F4B01221A60244B1B68244A136031E0BD
:100C4C00012240211B4800F042FF002220211948BC
:100C5C0000F03DFF01221021164800F038FF1B4B1D
:100C6C001B6801211846FFF719FC144B1B68012B5C
:100C7C001AD10021642000F035FB144B1B68013B9A
:100C8C00124A1360114B1B68002B0DDA084B022221
:100C9C001A600F4B1B68084A136005E000BF04E0A4
:100CAC0000BF02E000BF00E000BF00BF80BD00BF7E
:100CBC00800000200008014098000020EC0000207B
:100CCC000400002084000020080000209400002074
:100CDC000000002080B500AF524B1B68022B07D0E0
:100CEC00022B00F39580002B32D0012B60D08FE0CB
:100CFC0000224FF400714C4800F0E9FE01224FF441
:100D0C008071494800F0E3FE01228021464800F042
:100D1C00DEFE464B1B6802211846FFF7BFFB444B17
:100D2C005B68012B76D10121642000F0DBFA3F4B8C
:100D3C001B68013B3D4A13603C4B1B68002B69DA76
:100D4C00384B00221A603B4B1B683B4A136061E036
:100D5C0001224FF40071344800F0B9FE01224FF427
:100D6C008071314800F0B3FE002280212E4800F043
:100D7C00AEFE314B1B6802211846FFF78FFB2C4B44
:100D8C005B68012B48D10121642000F0ABFA2A4B9F
:100D9C001B68013B284A1360274B1B68002B3BDA6E
:100DAC00204B01221A60254B1B68254A136033E047
:100DBC0001224FF400711C4800F089FE00224FF410
:100DCC008071194800F083FE01228021164800F042
:100DDC007EFE1B4B1B6802211846FFF75FFB144B72
:100DEC005B68012B1AD10121642000F07BFA144BB3
:100DFC001B68013B124A1360114B1B68002B0DDA68
:100E0C00084B02221A600F4B1B68084A136005E05E
:100E1C0000BF04E000BF02E000BF00E000BF00BF65
:100E2C0080BD00BF9C000020000801408C00002009
:100E3C00EC000020040000208800002008000020A6
:100E4C00900000200000002080B483B000AF00238D
:100E5C007B6007E0084A7B68134400221A707B68A9
:100E6C0001337B607B68022BF4DD00BF00BF0C37C5
:100E7C00BD4680BC704700BFA000002080B483B08A
:100E8C0000AF0023FB710EE0FB790B4A0121D1541A
:100E9C00FB790A4A0121D154FB79094A0121D15429
:100EAC00FB790133FB71FB79022BEDD900BF00BF3D
:100EBC000C37BD4680BC70475C00002060000020F1
:100ECC005800002090B583B000AF0346FB71FA794F
:100EDC00FB792E49895C2E4AD154FB79002B09D120
:100EEC00FC7902212B4800F0DBFD03461A46274B08
:100EFC001A5515E0FB79012B09D1FC790421254801
:100F0C0000F0CEFD03461A46204B1A5508E0FC793A
:100F1C000821204800F0C4FD03461A461B4B1A5505
:100F2C00FB791A4AD25CFB791949CB5C9A4228D1DD
:100F3C00FA79FB791549895C174AD154FB79134A24
:100F4C00D35C002B14D1FB79144A32F81330632B89
:100F5C0009D8FB79114A32F81320013291B20F4AA9
:100F6C0022F813100DE0FB790D4A0121D15408E051
:100F7C00FB790A4A002122F81310FB79084A002158
:100F8C00D15400BF0C37BD4690BD00BF5C000020A3
:100F9C00600000200008014058000020680000207C
:100FAC006400002080B483B000AF0346FB71FB7972
:100FBC00022B01D9002307E0FB79064AD35C002BF6
:100FCC000CBF01230023DBB218460C37BD4680BC96
:100FDC00704700BF5800002080B483B000AF0346B8
:100FEC00FB71FB79022B01D9002307E0FB79064A40
:100FFC00D35C012B0CBF01230023DBB218460C374A
:10100C00BD4680BC704700BF6400002080B500AFB7
:10101C0000F05CFA00F030F800F0DCF800F068F852
:10102C00124801F0B1F9FFF729FFFFF70DFF02217C
:10103C00192000F057F9FFF7F5FA0D4B9B68012BBF
:10104C00F9D10221192000F04DF90A4B1B685A1CEA
:10105C0008490A601846FFF761FA064B1B68032B18
:10106C00E9DD044B00221A60E5E700BFA400002074
:10107C00EC0000204400002080B590B000AF07F1D8
:10108C00180328220021184601F03AFD3B1D0022CE
:10109C001A605A609A60DA601A610223BB610123FC
:1010AC00BB621023FB6200237B6307F11803184615
:1010BC0000F03EFD0346002B01D000F00DF90F238C
:1010CC007B600023BB600023FB6000233B6100239B
:1010DC007B613B1D0021184600F0AAFF0346002B44
:1010EC0001D000F0F9F800BF4037BD4680BD0000CC
:1010FC0080B588B000AF07F10C0300221A605A606B
:10110C009A60DA603B1D00221A605A602C4B4FF03B
:10111C0080421A602A4B41F63F725A60284B0022DB
:10112C009A60274B0922DA60254B00221A61244B66
:10113C0000229A61224801F0D7F80346002B01D017
:10114C0000F0CAF84FF48053FB6007F10C0319460A
:10115C001B4801F06DFA0346002B01D000F0BCF8DF
:10116C0000237B600023BB603B1D1946144801F033
:10117C0039FC0346002B01D000F0AEF8104B5B6835
:10118C001A46104B1A600E4BDB681A460E4B1A604F
:10119C000C4B1B6801330C4A1268013202FB03F33F
:1011AC000A4A92FBF3F3FB614FF47A72FB6992FBF0
:1011BC00F3F3074A136000BF2037BD4680BD00BF64
:1011CC00A4000020380000203C00002000127A000F
:1011DC004000002080B586B000AF07F10803002264
:1011EC001A605A609A60DA60284B9B69274A43F070
:1011FC0004039361254B9B6903F004037B607B68BC
:10120C00224B9B69214A43F0080393611F4B9B6956
:10121C0003F008033B603B6800224FF47C711C48D0
:10122C0000F055FC002240F2FF711A4800F04FFC10
:10123C000E23BB600023FB6001233B6107F1080315
:10124C001946134800F0B2FA4FF47C73BB600123CB
:10125C00FB6000233B6102237B6107F10803194605
:10126C000B4800F0A3FA40F2FF73BB600123FB6054
:10127C0000233B6102237B6107F1080319460548F3
:10128C0000F094FA00BF1837BD4680BD0010024034
:10129C0000080140000C014080B582B000AF7860BE
:1012AC00002000F037F8012000F034F8022000F0A4
:1012BC0031F8032000F02EF8042000F02BF8002069
:1012CC00FFF700FE0120FFF7FDFD0220FFF7FAFDFE
:1012DC0000BF0837BD4680BD80B400AF72B600BFFA
:1012EC00FEE7000080B483B000AF78603960074A35
:1012FC003B68002142F8231005493B687A6841F8A5
:10130C00232000BF0C37BD4680BC7047EC0000208A
:10131C007C02002080B483B000AF78600F4A7B68F9
:10132C0052F82330002B13DD0C4A7B6852F8233023
:10133C005A1E0A497B6841F82320084A7B6852F8F8
:10134C002330002B04DC064A7B68012142F8231071
:10135C0000BF0C37BD4680BC704700BF7C0200202C
:10136C00EC00002080B485B000AF154B9B69144A8B
:10137C0043F001039361124B9B6903F00103BB60C3
:10138C00BB680F4BDB690E4A43F08053D3610C4BA7
:10139C00DB6903F080537B607B680A4B5B68FB6006
:1013AC00FB6823F0E063FB60FB6843F08063FB6049
:1013BC00044AFB68536000BF1437BD4680BC7047BD
:1013CC00001002400000014080B584B000AF78608E
:1013DC007B681B68B3F1804F13D10C4BDB690B4A54
:1013EC0043F00103D361094BDB6903F00103FB609C
:1013FC00FB68002200211C2000F0A1F91C2000F049
:10140C00BAF900BF1037BD4680BD00BF00100240C6
:10141C0080B400AFFEE780B400AFFEE780B400AF4D
:10142C00FEE780B400AFFEE780B400AFFEE780B407
:10143C0000AF00BFBD4680BC704780B400AF00BF9A
:10144C00BD4680BC704780B400AF00BFBD4680BCB9
:10145C00704780B500AF00F07FF800BF80BD000082
:10146C0080B500AF024800F0DBFF00BF80BD00BFBD
:10147C00A400002080B400AF00BFBD4680BC704704
:10148C00FFF7F8FF0B480C490C4A002302E0D45834
:10149C00C4500433C4188C42F9D3094A094C0023B4
:1014AC0001E013600432A242FBD301F005FBFFF70D
:1014BC00ADFD7047000000201C000020602B0008D0
:1014CC001C00002010040020FEE7000080B500AFD7
:1014DC00084B1B68074A43F010031360032000F00D
:1014EC0023F90F2000F008F8FFF73CFF0023184603
:1014FC0080BD00BF0020024080B582B000AF786094
:10150C00124B1A68124B1B7819464FF47A73B3FBC3
:10151C00F1F3B2FBF3F3184600F03BF90346002B52
:10152C0001D001230EE07B680F2B0AD800227968CA
:10153C004FF0FF3000F003F9064A7B68136000237C
:10154C0000E0012318460837BD4680BD100000207E
:10155C00180000201400002080B400AF054B1B784D
:10156C001A46054B1B681344034A136000BFBD4663
:10157C0080BC7047180000200C04002080B400AF21
:10158C00024B1B681846BD4680BC70470C040020FB
:10159C0080B485B000AF78607B6803F00703FB6014
:1015AC000C4BDB68BB60BA684FF6FF031340BB60A3
:1015BC00FB681A02BB68134343F0BF6343F4003368
:1015CC00BB60044ABB68D36000BF1437BD4680BC07
:1015DC00704700BF00ED00E080B400AF044BDB6847
:1015EC001B0A03F007031846BD4680BC704700BFBA
:1015FC0000ED00E080B483B000AF0346FB7197F9B7
:10160C000730002B0BDBFB7903F01F02064997F91F
:10161C0007305B09012000FA02F241F8232000BFD9
:10162C000C37BD4680BC704700E100E080B483B04D
:10163C0000AF03463960FB7197F90730002B0ADBCA
:10164C003B68DAB20C4997F907301201D2B20B445D
:10165C0083F800230AE03B68DAB20849FB7903F00F
:10166C000F03043B1201D2B20B441A7600BF0C37A5
:10167C00BD4680BC704700BF00E100E000ED00E01B
:10168C0080B489B000AFF860B9607A60FB6803F091
:10169C000703FB61FB69C3F10703042B28BF042379
:1016AC00BB61FB690433062B02D9FB69033B00E0E9
:1016BC0000237B614FF0FF32BB6902FA03F3DA437C
:1016CC00BB681A407B699A404FF0FF317B6901FA85
:1016DC0003F3D9437B680B40134318462437BD46AC
:1016EC0080BC704780B582B000AF78607B68013BEE
:1016FC00B3F1807F01D301230FE00A4A7B68013BE1
:10170C0053600F214FF0FF30FFF790FF054B002285
:10171C009A60044B07221A60002318460837BD460E
:10172C0080BD00BF10E000E080B582B000AF7860F3
:10173C007868FFF72DFF00BF0837BD4680BD80B528
:10174C0086B000AF0346B9607A60FB7300237B61FF
:10175C00FFF742FF78617A68B9687869FFF790FF04
:10176C00024697F90F3011461846FFF75FFF00BF8E
:10177C001837BD4680BD80B582B000AF0346FB7103
:10178C0097F907301846FFF735FF00BF0837BD46FD
:10179C0080BD80B582B000AF78607868FFF7A2FF9B
:1017AC00034618460837BD4680BD000080B48BB098
:1017BC0000AF7860396000237B6200233B6248E114
:1017CC0001227B6A02FA03F3FB613B681B68FA692E
:1017DC001340BB61BA69FB699A4240F037813B68A0
:1017EC005B68A34A93425ED0A14A934275D8A14A42
:1017FC00934258D09F4A93426FD89F4A934252D0FB
:10180C009D4A934269D89D4A93424CD09B4A93423D
:10181C0063D89B4A934246D0994A93425DD8122B87
:10182C002AD8122B59D801A252F823F0B318000869
:10183C008D1800089F180008E1180008E718000828
:10184C00E7180008E7180008E7180008E718000870
:10185C00E7180008E7180008E7180008E718000860
:10186C00E7180008E7180008E7180008E718000850
:10187C0095180008A9180008824A934213D02CE04E
:10188C003B68DB683B6229E03B68DB6804333B6206
:10189C0024E03B68DB6808333B621FE03B68DB6895
:1018AC000C333B621AE03B689B68002B02D104238B
:1018BC003B6213E03B689B68012B05D108233B621C
:1018CC007B68FA691A6109E008233B627B68FA6954
:1018DC005A6103E000233B6200E000BFBB69FF2BB1
:1018EC0001D87B6801E07B6804337B61BB69FF2B0B
:1018FC0002D87B6A9B0002E07B6A083B9B003B6141
:10190C007B691A680F213B6901FA03F3DB431A4028
:10191C00396A3B6901FA03F31A437B691A603B6825
:10192C005B6803F08053002B00F09080564B9B6952
:10193C00554A43F001039361534B9B6903F0010338
:10194C00BB60BB68514A7B6A9B08023352F8233058
:10195C00FB607B6A03F003039B000F2202FA03F384
:10196C00DB43FA681340FB607B68494A93420DD015
:10197C007B68484A934207D07B68474A934201D11F
:10198C00022304E0032302E0012300E000237A6A2F
:10199C0002F0030292009340FA681343FB603B4948
:1019AC007B6A9B080233FA6841F823203B685B682A
:1019BC0003F48013002B06D0384B9A683749BB6967
:1019CC0013438B6006E0354B9A68BB69DB433349A4
:1019DC0013408B603B685B6803F40013002B06D04C
:1019EC002E4BDA682D49BB691343CB6006E02B4BB9
:1019FC00DA68BB69DB4329491340CB603B685B6801
:101A0C0003F40033002B06D0244B5A682349BB69DE
:101A1C0013434B6006E0214B5A68BB69DB431F49FB
:101A2C0013404B603B685B6803F48033002B06D09B
:101A3C001A4B1A681949BB6913430B6006E0174B24
:101A4C001A68BB69DB43154913400B607B6A013391
:101A5C007B623B681A687B6A22FA03F3002B7FF4E3
:101A6C00AFAE00BF00BF2C37BD4680BC704700BF77
:101A7C000000321000003110000022100000211074
:101A8C000000121000001110001002400000014074
:101A9C0000080140000C014000100140000401400E
:101AAC0080B485B000AF78600B467B807B689A6809
:101ABC007B881340002B02D00123FB7301E0002331
:101ACC00FB73FB7B18461437BD4680BC704780B453
:101ADC0083B000AF78600B467B8013467B707B78BD
:101AEC00002B03D07A887B681A6103E07B881A0488
:101AFC007B681A6100BF0C37BD4680BC704780B450
:101B0C0085B000AF78600B467B807B68DB68FB6040
:101B1C007A88FB6813401A04FB68D9437B880B4016
:101B2C001A437B681A6100BF1437BD4680BC7047EE
:101B3C0080B586B000AF78607B68002B01D10123A3
:101B4C006CE27B681B6803F00103002B00F08780BC
:101B5C00924B5B6803F00C03042B0CD08F4B5B682F
:101B6C0003F00C03082B12D18C4B5B6803F480330D
:101B7C00B3F5803F0BD1894B1B6803F40033002B6A
:101B8C006CD07B685B68002B68D1012346E27B68D4
:101B9C005B68B3F5803F06D1804B1B687F4A43F4EA
:101BAC00803313602EE07B685B68002B0CD17B4B81
:101BBC001B687A4A23F480331360784B1B68774A8E
:101BCC0023F4802313601DE07B685B68B3F5A02FC2
:101BDC000CD1724B1B68714A43F4802313606F4B1A
:101BEC001B686E4A43F4803313600BE06B4B1B682D
:101BFC006A4A23F480331360684B1B68674A23F4EA
:101C0C00802313607B685B68002B13D0FFF7B6FC56
:101C1C00386108E0FFF7B2FC02463B69D31A642B2B
:101C2C0001D90323FAE15D4B1B6803F40033002B4D
:101C3C00F0D014E0FFF7A2FC386108E0FFF79EFC3F
:101C4C0002463B69D31A642B01D90323E6E1534BBB
:101C5C001B6803F40033002BF0D100E000BF7B685D
:101C6C001B6803F00203002B63D04C4B5B6803F042
:101C7C000C03002B0BD0494B5B6803F00C03082BB7
:101C8C001CD1464B5B6803F48033002B16D1434BBD
:101C9C001B6803F00203002B05D07B681B69012B2A
:101CAC0001D00123BAE13D4B1B6823F0F8027B689D
:101CBC005B69DB00394913430B603AE07B681B69B5
:101CCC00002B20D0364B01221A60FFF757FC3861ED
:101CDC0008E0FFF753FC02463B69D31A022B01D9EB
:101CEC0003239BE12D4B1B6803F00203002BF0D068
:101CFC002A4B1B6823F0F8027B685B69DB002749E1
:101D0C0013430B6015E0264B00221A60FFF736FCDC
:101D1C00386108E0FFF732FC02463B69D31A022B0C
:101D2C0001D903237AE11D4B1B6803F00203002B3E
:101D3C00F0D17B681B6803F00803002B3AD07B685A
:101D4C009B69002B19D0174B01221A60FFF716FC68
:101D5C00386108E0FFF712FC02463B69D31A022BEC
:101D6C0001D903235AE10D4B5B6A03F00203002BEC
:101D7C00F0D0012000F09AFA1CE00A4B00221A6005
:101D8C00FFF7FCFB38610FE0FFF7F8FB02463B69FD
:101D9C00D31A022B08D9032340E100BF00100240E4
:101DAC0000004242800442429E4B5B6A03F00203F5
:101DBC00002BE9D17B681B6803F00403002B00F0B7
:101DCC00A6800023FB75974BDB6903F08053002B37
:101DDC000DD1944BDB69934A43F08053D361914B03
:101DEC00DB6903F08053BB60BB680123FB758E4B32
:101DFC001B6803F48073002B18D18B4B1B688A4A29
:101E0C0043F480731360FFF7B9FB386108E0FFF708
:101E1C00B5FB02463B69D31A642B01D90323FDE0C1
:101E2C00814B1B6803F48073002BF0D07B68DB685C
:101E3C00012B06D17B4B1B6A7A4A43F001031362D8
:101E4C002DE07B68DB68002B0CD1764B1B6A754A46
:101E5C0023F001031362734B1B6A724A23F00403D1
:101E6C0013621CE07B68DB68052B0CD16D4B1B6A85
:101E7C006C4A43F0040313626A4B1B6A694A43F0D1
:101E8C00010313620BE0674B1B6A664A23F00103E4
:101E9C001362644B1B6A634A23F0040313627B686E
:101EAC00DB68002B15D0FFF769FB38610AE0FFF700
:101EBC0065FB02463B69D31A41F28832934201D941
:101ECC000323ABE0574B1B6A03F00203002BEED04D
:101EDC0014E0FFF753FB38610AE0FFF74FFB0246B3
:101EEC003B69D31A41F28832934201D9032395E01E
:101EFC004C4B1B6A03F00203002BEED1FB7D012B34
:101F0C0005D1484BDB69474A23F08053D3617B688A
:101F1C00DB69002B00F08180424B5B6803F00C0303
:101F2C00082B61D07B68DB69022B46D13F4B00222A
:101F3C001A60FFF723FB386108E0FFF71FFB02462E
:101F4C003B69D31A022B01D9032367E0354B1B687D
:101F5C0003F00073002BF0D17B681B6AB3F5803F54
:101F6C0008D1304B5B6823F400327B689B682D49A9
:101F7C0013434B602B4B5B6823F474127B68196A18
:101F8C007B685B6A0B43274913434B60274B012249
:101F9C001A60FFF7F3FA386108E0FFF7EFFA024630
:101FAC003B69D31A022B01D9032337E01D4B1B6865
:101FBC0003F00073002BF0D02FE01C4B00221A60B2
:101FCC00FFF7DCFA386108E0FFF7D8FA02463B6904
:101FDC00D31A022B01D9032320E0124B1B6803F008
:101FEC000073002BF0D118E07B68DB69012B01D169
:101FFC00012313E00B4B5B68FB60FB6803F480323E
:10200C007B681B6A9A4206D1FB6803F470127B68EA
:10201C005B6A9A4201D0012300E00023184618376E
:10202C00BD4680BD0010024000700040600042427E
:10203C0080B584B000AF786039607B68002B01D12B
:10204C000123D0E06A4B1B6803F007033A689A42FD
:10205C0010D9674B1B6823F0070265493B68134393
:10206C000B60634B1B6803F007033A689A4201D07C
:10207C000123B8E07B681B6803F00203002B20D01F
:10208C007B681B6803F00403002B05D0594B5B687D
:10209C00584A43F4E06353607B681B6803F0080301
:1020AC00002B05D0534B5B68524A43F4605353608A
:1020BC00504B5B6823F0F0027B689B684D491343DF
:1020CC004B607B681B6803F00103002B40D07B68DE
:1020DC005B68012B07D1474B1B6803F40033002BC3
:1020EC0015D101237FE07B685B68022B07D1414B44
:1020FC001B6803F00073002B09D1012373E03D4BE7
:10210C001B6803F00203002B01D101236BE0394B58
:10211C005B6823F003027B685B68364913434B60B2
:10212C00FFF72CFAF8600AE0FFF728FA0246FB6882
:10213C00D31A41F28832934201D9032353E02D4B39
:10214C005B6803F00C027B685B689B009A42EBD1E6
:10215C00274B1B6803F007033A689A4210D2244BB2
:10216C001B6823F0070222493B6813430B60204B8A
:10217C001B6803F007033A689A4201D0012332E04E
:10218C007B681B6803F00403002B08D0194B5B68B9
:10219C0023F4E0627B68DB68164913434B607B6871
:1021AC001B6803F00803002B09D0124B5B6823F467
:1021BC0060527B681B69DB000E4913434B6000F0D7
:1021CC0021F802460B4B5B681B0903F00F030A490D
:1021DC00CB5C22FA03F3094A1360094B1B681846BF
:1021EC00FFF78AF9002318461037BD4680BD00BFA3
:1021FC000020024000100240342B00081000002088
:10220C001400002080B487B000AF0023FB600023D3
:10221C00BB6000237B6100237B6000233B611E4B72
:10222C005B68FB60FB6803F00C03042B02D0082BEB
:10223C0003D027E0194B3B6127E0FB689B0C03F0B4
:10224C000F03174AD35C7B60FB6803F48033002BCD
:10225C0010D0114B5B685B0C03F00103114AD35C8B
:10226C00BB607B680D4A02FB03F2BB68B2FBF3F365
:10227C007B6104E07B680C4A02FB03F37B617B69A6
:10228C003B6102E0054B3B6100BF3B6918461C37C4
:10229C00BD4680BC704700BF0010024000127A009F
:1022AC00442B0008542B000800093D0080B485B075
:1022BC0000AF78600A4B1B680A4AA2FB03235B0A37
:1022CC007A6802FB03F3FB6000BFFB685A1EFA60DE
:1022DC00002BF9D100BF00BF1437BD4680BC70473E
:1022EC0010000020D34D621080B582B000AF786032
:1022FC007B68002B01D1012341E07B6893F83D30D2
:10230C00DBB2002B06D17B68002283F83C20786876
:10231C00FFF75AF87B68022283F83D207B681A6825
:10232C007B6804331946104600F06EFA7B68012274
:10233C0083F846207B68012283F83E207B680122CB
:10234C0083F83F207B68012283F840207B680122C0
:10235C0083F841207B68012283F842207B680122AC
:10236C0083F843207B68012283F844207B68012298
:10237C0083F845207B68012283F83D200023184612
:10238C000837BD4680BD000080B485B000AF7860D2
:10239C007B6893F83D30DBB2012B01D0012335E093
:1023AC007B68022283F83D207B681B68DA687B68B7
:1023BC001B6842F00102DA607B681B68164A934284
:1023CC0009D07B681B68B3F1804F04D07B681B6815
:1023DC00124A934211D17B681B689B6803F0070378
:1023EC00FB60FB68062B10D07B681B681A687B6847
:1023FC001B6842F001021A6007E07B681B681A68D0
:10240C007B681B6842F001021A60002318461437DF
:10241C00BD4680BC704700BF002C0140000400404A
:10242C0080B582B000AF78607B681B681B6903F0D5
:10243C000203022B22D17B681B68DB6803F00203CA
:10244C00022B1BD17B681B686FF002021A617B6840
:10245C0001221A777B681B689B6903F00303002B2E
:10246C0003D0786800F0B4F905E0786800F0A7F9BB
:10247C00786800F0B6F97B6800221A777B681B68D5
:10248C001B6903F00403042B22D17B681B68DB68F7
:10249C0003F00403042B1BD17B681B686FF0040250
:1024AC001A617B6802221A777B681B689B6903F4AC
:1024BC004073002B03D0786800F08AF905E0786847
:1024CC0000F07DF9786800F08CF97B6800221A77AF
:1024DC007B681B681B6903F00803082B22D17B68FF
:1024EC001B68DB6803F00803082B1BD17B681B6897
:1024FC006FF008021A617B6804221A777B681B68EC
:10250C00DB6903F00303002B03D0786800F060F95B
:10251C0005E0786800F053F9786800F062F97B68A0
:10252C0000221A777B681B681B6903F01003102BC1
:10253C0022D17B681B68DB6803F01003102B1BD1C6
:10254C007B681B686FF010021A617B6808221A778F
:10255C007B681B68DB6903F44073002B03D078683D
:10256C0000F036F905E0786800F029F9786800F099
:10257C0038F97B6800221A777B681B681B6903F0AB
:10258C000103012B0ED17B681B68DB6803F0010390
:10259C00012B07D17B681B686FF001021A61786808
:1025AC00FEF77AFE7B681B681B6903F08003802BA7
:1025BC000ED17B681B68DB6803F08003802B07D18E
:1025CC007B681B686FF080021A61786800F06BFA08
:1025DC007B681B681B6903F04003402B0ED17B68A2
:1025EC001B68DB6803F04003402B07D17B681B683A
:1025FC006FF040021A61786800F0FCF87B681B6889
:10260C001B6903F02003202B0ED17B681B68DB6851
:10261C0003F02003202B07D17B681B686FF020028E
:10262C001A61786800F036FA00BF0837BD4680BDE5
:10263C0080B584B000AF786039600023FB737B6891
:10264C0093F83C30012B01D10223B4E07B680122CA
:10265C0083F83C207B68022283F83D207B681B6852
:10266C009B68BB60BB6823F07703BB60BB6823F43B
:10267C007F43BB607B681B68BA689A603B681B68C9
:10268C00B3F5005F3ED0B3F5005F00F28780B3F581
:10269C00805F00F08680B3F5805F7FD8702B1AD0F6
:1026AC00702B7BD8602B50D0602B77D8502B3CD024
:1026BC00502B73D8402B58D0402B6FD8302B64D074
:1026CC00302B6BD8202B60D0202B67D8002B5CD004
:1026DC00102B5AD062E07B6818683B6899683B689D
:1026EC005A683B68DB6800F05EF97B681B689B6886
:1026FC00BB60BB6843F07703BB607B681B68BA6840
:10270C009A604FE07B6818683B6899683B685A6828
:10271C003B68DB6800F047F97B681B689A687B684C
:10272C001B6842F480429A603CE07B6818683B6806
:10273C0059683B68DB681A4600F0BEF87B681B687A
:10274C005021184600F015F92CE07B6818683B689E
:10275C0059683B68DB681A4600F0DCF87B681B683C
:10276C006021184600F005F91CE07B6818683B688E
:10277C0059683B68DB681A4600F09EF87B681B685A
:10278C004021184600F0F5F80CE07B681A683B68AD
:10279C001B681946104600F0ECF803E00123FB73AC
:1027AC0000E000BF7B68012283F83D207B6800229B
:1027BC0083F83C20FB7B18461037BD4680BD80B4A7
:1027CC0083B000AF786000BF0C37BD4680BC70474B
:1027DC0080B483B000AF786000BF0C37BD4680BCBE
:1027EC00704780B483B000AF786000BF0C37BD4633
:1027FC0080BC704780B483B000AF786000BF0C37EA
:10280C00BD4680BC7047000080B485B000AF7860D6
:10281C0039607B681B68FB607B68254A934207D054
:10282C007B68B3F1804F03D07B68224A934208D176
:10283C00FB6823F07003FB603B685B68FA6813432A
:10284C00FB607B681A4A934207D07B68B3F1804FD8
:10285C0003D07B68174A934208D1FB6823F440737A
:10286C00FB603B68DB68FA681343FB60FB6823F092
:10287C0080023B685B691343FB607B68FA681A60F3
:10288C003B689A687B68DA623B681A687B689A6274
:10289C007B68074A934203D13B681A697B681A63C9
:1028AC007B6801225A6100BF1437BD4680BC70475B
:1028BC00002C01400004004080B487B000AFF860E9
:1028CC00B9607A60FB681B6A7B61FB681B6A23F04A
:1028DC000102FB681A62FB689B693B613B6923F050
:1028EC00F0033B617B681B013A6913433B617B69D5
:1028FC0023F00A037B617A69BB6813437B61FB6835
:10290C003A699A61FB687A691A6200BF1C37BD4646
:10291C0080BC704780B487B000AFF860B9607A6053
:10292C00FB681B6A7B61FB681B6A23F01002FB6867
:10293C001A62FB689B693B613B6923F470433B6102
:10294C007B681B033A6913433B617B6923F0A0034B
:10295C007B61BB681B017A6913437B61FB683A6935
:10296C009A61FB687A691A6200BF1C37BD4680BC4D
:10297C00704780B485B000AF786039607B689B6825
:10298C00FB60FB6823F07003FB603A68FB68134341
:10299C0043F00703FB607B68FA689A6000BF14374A
:1029AC00BD4680BC704780B487B000AFF860B9609A
:1029BC007A603B60FB689B687B617B6923F47F4397
:1029CC007B613B681A027B681A43BB6813437A69C4
:1029DC0013437B61FB687A699A6000BF1C37BD4664
:1029EC0080BC704780B485B000AF786039607B687C
:1029FC0093F83C30012B01D1022341E07B6801228A
:102A0C0083F83C207B68022283F83D207B681B689E
:102A1C005B68FB607B681B689B68BB60FB6823F092
:102A2C007003FB603B681B68FA681343FB607B68B0
:102A3C001B68FA685A607B681B68144A934209D079
:102A4C007B681B68B3F1804F04D07B681B68104A0D
:102A5C0093420CD1BB6823F08003BB603B685B687E
:102A6C00BA681343BB607B681B68BA689A607B6862
:102A7C00012283F83D207B68002283F83C20002350
:102A8C0018461437BD4680BC704700BF002C01406F
:102A9C000004004080B483B000AF786000BF0C37F6
:102AAC00BD4680BC704780B483B000AF786000BF77
:102ABC000C37BD4680BC704770B500260C4D0D4CD4
:102ACC00641BA410A64209D100F022F800260A4D7E
:102ADC000A4C641BA410A64205D170BD55F8043BEA
:102AEC0098470136EEE755F8043B98470136F2E774
:102AFC00582B0008582B0008582B00085C2B00089A
:102B0C0003460244934200D1704703F8011BF9E7D6
:102B1C00F8B500BFF8BC08BC9E467047F8B500BFBE
:082B2C00F8BC08BC9E4670478E
:102B34000000000000000000010203040607080969
:102B440002030405060708090A0B0C0D0E0F1010EA
:042B5400010200007A
:042B5800310100083F
:042B5C000D0100085F
:102B6000040000000200000001000000010000005D
:0C2B70000024F400100000000100000030
:040000050800148D4E
:00000001FF
